:020000040800F2
:10000000B00E0020CD010008B70A0008850A0008DC
:10001000B50A0008F30200084B0C000800000000BD
:10002000000000000000000000000000E50B0008D8
:10003000F502000800000000B90A0008E70B0008FC
:10004000E7010008E7010008E7010008E7010008F0
:10005000E7010008E7010008E7010008E7010008E0
:10006000E7010008E7010008E7010008E7010008D0
:10007000E7010008E7010008E7010008E7010008C0
:10008000E7010008E7010008E7010008E7010008B0
:10009000E7010008E7010008E7010008E7010008A0
:1000A000E7010008E7010008E7010008E701000890
:1000B000E7010008E7010008E7010008E701000880
:1000C000E7010008E7010008E7010008E701000870
:1000D000E7010008E7010008E7010008E701000860
:1000E000E7010008E7010008E7010008E701000850
:1000F000E7010008E7010008E7010008E701000840
:10010000E7010008E7010008E7010008E70100082F
:10011000E7010008E7010008E7010008E70100081F
:10012000E7010008E7010008E7010008E70100080F
:1001300000F002F800F03AF80AA090E8000C8244BF
:100140008344AAF10107DA4501D100F02FF8AFF29C
:10015000090EBAE80F0013F0010F18BFFB1A43F0A5
:1001600001031847540B0000740B0000103A24BF21
:1001700078C878C1FAD8520724BF30C830C144BF0C
:1001800004680C607047000000230024002500264E
:10019000103A28BF78C1FBD8520728BF30C148BFEA
:1001A0000B6070471FB51FBD10B510BD00F06BF898
:1001B0001146FFF7F7FF00F059FD00F089F803B48E
:1001C000FFF7F2FF03BC00F08DF8000009488047FC
:1001D00009480047FEE7FEE7FEE7FEE7FEE7FEE729
:1001E000FEE7FEE7FEE7FEE704480549054A064B41
:1001F00070470000490C000831010008B0080020D9
:10020000B00E0020B00A0020B00A0020B2F1200396
:100210000AD5C2F1200320FA02F001FA03F321FA11
:1002200002F140EA0300704721FA03F04FF00001A9
:1002300070474FF0000200B51346944696462039A9
:1002400022BFA0E80C50A0E80C50B1F12001BFF48F
:10025000F7AF090728BFA0E80C5048BF0CC05DF8F5
:1002600004EB890028BF40F8042B08BF704748BF43
:1002700020F8022B11F0804F18BF00F8012B7047B7
:10028000704770477047754600F028F8AE46050085
:100290006946534620F00700854618B020B5FFF7A1
:1002A000A3FFBDE820404FF000064FF000074FF0DD
:1002B00000084FF0000B21F00701AC46ACE8C00984
:1002C000ACE8C009ACE8C009ACE8C0098D4670478D
:1002D0000446AFF300802046FFF771FF00487047E7
:1002E0005008002001491820ABBEFEE7260002009E
:1002F0007047FEE770470000044B0022DA61044AB1
:10030000136943F00103136101807047100000205E
:100310000020024014480022C168CB06134904D5CE
:10032000CA6942F00202CA611022C3685B0705D5A0
:10033000CB6943F00103CB6142F00402C369DB07E0
:1003400007D0CB6943F00403CB61C16921F00101FF
:10035000C161A2F58071013901D0C2607047C169E5
:1003600021F00101C161704700200240100000200F
:1003700070B5054600F096F80646114C09E0681C79
:1003800007D025B100F08EF8801BA84201D90320C8
:1003900070BDE068C007F2D1E068800601D520207A
:1003A000E060E068C00605D4E069C00702D1E068FB
:1003B000400703D5FFF7AEFF012070BD002070BDE0
:1003C00000200240064A0021D16106490A6942F034
:1003D00002020A614861086940F040000861704704
:1003E00030000020002002400348016941F08001F4
:1003F0000161002070470000002002402DE9F05FFD
:1004000007461C4888460024017E15461E460129E1
:1004100009D00121814601764CF2503A5046FFF74F
:10042000A7FF18B122E00220BDE8F09F012F02D003
:10043000022F00D00427D346DFF83CA02201284633
:100440003146FFF7E3FE81B208EB4400FFF754FFAB
:100450005846FFF78DFFDAF8102022F00102CAF8A3
:10046000102018B9641CE4B2BC42E7D3002289F81A
:100470001820D9E710000020002002400649002083
:100480000A69120607D5054A4A60054A4A600969A1
:10049000090600D50120704700200240230167456E
:1004A000AB89EFCD01488068704700000000002054
:1004B0000248816802781144816070470000002082
:1004C000074810B5016841F010010160032000F0F9
:1004D00067F80F2000F006F800F024F8002010BDA7
:1004E0000020024070B50D4D04464FF47A71287813
:1004F000B1FBF0F00A490968B1FBF0F000F0AEFA88
:1005000048B9102C07D200222146501E00F028F8CE
:1005100000206C6070BD012070BD00000000002054
:100520000C0000200C4808B5816941F0010181618F
:10053000816901F001010091C16941F08051C161FF
:10054000C06900F0805000900448416821F0E061EB
:1005500041F00071416008BD001002400000014000
:10056000F0B40E4B1B680C46C3F30223C3F107051E
:10057000042D00D90425191D072901D2002300E00C
:10058000DB1E012606FA05F1491E214099409E40D6
:10059000761E16403143F0BC00F058BB0CED00E075
:1005A000064900F0070208684FF6FF03184040EACA
:1005B0000220034A10430860704700000CED00E081
:1005C0000000FA052DE9F0470F46050061D0434EC3
:1005D000306800F00700B84209D2306820F0070008
:1005E00038433060306800F00700B84251D12868C5
:1005F0003B4C810712D5400703D5606840F4E060AA
:1006000060602878000703D5606840F4605060603F
:100610006068A96820F0F000084360602878C0078F
:1006200028D06868012810D02168022810D08907D6
:1006300000292EDA616821F0030101436160FFF7B0
:1006400031FF804641F288390DE021688903EFE7E8
:100650008901EDE7FFF726FFA0EB0801494502D924
:100660000320BDE8F0876068696800F00C00B0EB1B
:10067000810FEFD1306800F00700B8420BD9306825
:1006800020F0070038433060306800F00700B842BF
:1006900001D00120E5E72878400705D56068E968C2
:1006A00020F4E060084360602878000706D56068A1
:1006B000296920F4605040EAC100606000F018F839
:1006C0006168084AC1F30311515CC84006490860DB
:1006D00006480068FFF706FF0020C2E7002002403E
:1006E00000100240A60C00080C00002004000020AE
:1006F0000E4A51680E4801F00C03042B11D0082B50
:100700000FD10C48C1F38343C903C05C0AD55168BB
:10071000084AC1F34041921E515C054A5043B0FB68
:10072000F1F0704704494843704700000010024050
:1007300000127A00960C000800093D002DE9F84FE0
:10074000040070D02078C04DC00749D06868C0F35D
:100750008100012807D06868C0F38100022809D110
:100760006868C00306D52868800339D5606800280A
:10077000E7D035E06068B0F5803F0BD010B1B0F540
:10078000A02F11D0286820F480302860286820F439
:10079000802002E0286840F480302860606890B1D2
:1007A000FFF780FE06460AE0286840F480202860B3
:1007B000F0E700BFFFF776FE801B642873D8286837
:1007C0008003F7D50CE0FFF76DFE064605E000BF9D
:1007D000FFF768FE801B6428F0D828688003F7D4F0
:1007E00020789A4E80074FF001094FF0000839D564
:1007F000686810F00C0F07D06868C0F38100022809
:1008000009D16868C00306D42868800714D5206918
:10081000012808D110E02069B0B1C6F80090FFF7B8
:1008200041FE074605E00AE1FFF73CFEC01B022837
:10083000C4D828688007F7D52868616920F0F800D7
:1008400040EAC10028600DE0C6F80080FFF72AFEEC
:10085000074604E0FFF726FEC01B022823D82868BD
:100860008007F7D4207800072CD57948A169D9B141
:10087000C0F80090FFF716FE074604E0FFF712FEEF
:10088000C01B02280FD8686A8007F7D571484FF45B
:10089000FA510068B0FBF1F0009000BF0098411ED3
:1008A0000091FAD20EE080E0C0F80080FFF7FAFD78
:1008B000074604E0FFF7F6FDC01B022875D8686AFA
:1008C0008007F7D42078400760D5E8690027C0008A
:1008D00008D4E86940F08050E861E869012700F039
:1008E000805000905C480168C90513D401688346B4
:1008F00041F480710160FFF7D5FD824606E000BF3C
:10090000FFF7D0FDA0EB0A0064284ED8DBF800000A
:10091000C005F5D5E06801280AD008B1052813D034
:10092000286A20F001002862286A20F0040002E012
:10093000286A40F001002862E06841F2883B98B1E3
:10094000FFF7B0FD82460BE0286A40F00400286201
:10095000EEE700BFFFF7A6FDA0EB0A0159455AD804
:10096000286A8007F6D50CE0FFF79CFD824605E07B
:10097000FFF798FDA0EB0A0159454CD8286A80077B
:10098000F6D41FB1E86920F08050E861E06988B3CF
:100990006968C1F38101022944D00228C6F8608049
:1009A00004D0FFF77FFD044638E034E0FFF77AFD1E
:1009B000074604E0FFF776FDC01B02282BD8286805
:1009C0008001F7D4206AB0F5803F05D16868A1683E
:1009D00020F4003008436860D4E9080108436968DE
:1009E00021F4741108436860C6F86090FFF75AFD5F
:1009F000044606E025E000BFFFF754FD001B022877
:100A000009D828688001F7D51BE000BFFFF74AFD31
:100A1000001B022802D90320BDE8F88F2868800156
:100A2000F4D40EE00128F7D06868226A00F480311F
:100A3000914204D1616A00F47010884201D0012013
:100A4000EAE70020E8E70000001002400000424210
:100A5000800442420C0000200070004010B5401E8F
:100A6000B0F1807F01D3012010BD4FF0E024606120
:100A70000F21601700F0EAF80020A0610720206134
:100A8000002010BDFEE70000094808B5816941F06B
:100A900010018161816901F010010091816941F0CB
:100AA00004018161806900F00400009008BD00002D
:100AB00000100240FEE7FEE77047000010B500237B
:100AC00006E000BF30F8024B21F813405B1C9BB2DC
:100AD0009342F7D310BD00002DE9F05FA0F1006450
:100AE00015468A468346B4F5002F5FD2FFF7C6FC51
:100AF000E70AC4F34906C6F58064A54200D82C462F
:100B0000DFF8AC904FF0006000EBC72080464FF458
:100B100080622749FFF7D2FF00204FF6FF7106E001
:100B2000331839F813208A4203D1401C80B2A04206
:100B3000F6D3A0422ED24046FFF744FC4CF2503090
:100B4000FFF716FC1B48016921F00201016100203A
:100B5000494606E03AF810208319401C21F813207A
:100B600080B2A042F6D3124940464FF4806200BFE3
:100B700000F022F8A54215D0281B0AEB440A0BEB23
:100B8000440B002685B24FF480647F1CA542B9D87F
:100B90002C46B7E74CF25030FFF7EAFB22465146AD
:100BA0005846E5E7BDE8F05FFFF71EBCBDE8F09FE3
:100BB00050000020002002402DE9F04116460F466B
:100BC000054600240AE000BF37F814200023294618
:100BD0000120FFF713FC641CA4B2AD1CB442F3D394
:100BE000BDE8F0817047FFF763BC30B58FB02821B6
:100BF0006846FFF71EFB14210AA8FFF71AFB012124
:100C00000804CDE900100024029402250491CDE9E6
:100C100007504FF4E01009906846FFF78FFD08B1C8
:100C200072B6FEE70F20CDE90A054FF48060CDE9EA
:100C30000C4002210AA80E94FFF7C4FC002801D042
:100C400072B6FEE70FB030BD7047FEE70907090E28
:100C5000002804DB00F1E02080F80014704700F069
:100C60000F0000F1E02080F8141D704708B5FFF771
:100C700027FCFFF7BAFFFFF707FF41F26620ADF848
:100C80000000022269460248FFF726FFFEE7000047
:100C900000F00108010202030405060708090A0B17
:100CA0000C0D0E0F101000000000000000000102EB
:100CB0000304060708090000D80C00080000002003
:100CC000100000006C010008E80C00081000002073
:100CD000A00E0000880100080100000010000000C4
:080CE000000000000024F400F4
:0400000508000131BD
:00000001FF
